:020000022000DC
:1060000000000120BD620200E5620200E7620200BA
:10601000E9620200EB620200ED6202000000000093
:10602000000000000000000000000000EF6202001D
:10603000F162020000000000F3620200F56202005B
:10604000DDAF0200F762020091B40200D538030010
:10605000F762020099CC02004DB00200F762020024
:10606000F7620200F7620200F7620200F7620200C4
:10607000F7620200F7620200F7620200F7620200B4
:10608000F762020009CD0200F7620200F762020027
:10609000F7620200F76202008D260300F762020039
:1060A000F7620200F7620200F7620200F762020084
:1060B000F7620200F762020000000000000000002A
:1060C000F7620200F7620200F7620200F762020064
:1060D000F7620200F7620200F762020000000000AF
:1060E00000000000000000000000000000000000B0
:1060F00000000000000000000000000000000000A0
:10610000000000000000000000000000000000008F
:10611000000000000000000000000000000000007F
:10612000000000000000000000000000000000006F
:10613000000000000000000000000000000000005F
:10614000000000000000000000000000000000004F
:10615000000000000000000000000000000000003F
:10616000000000000000000000000000000000002F
:10617000000000000000000000000000000000001F
:10618000000000000000000000000000000000000F
:1061900000000000000000000000000000000000FF
:1061A00000000000000000000000000000000000EF
:1061B00000000000000000000000000000000000DF
:1061C00000000000000000000000000000000000CF
:1061D00000000000000000000000000000000000BF
:1061E00000000000000000000000000000000000AF
:1061F000000000000000000000000000000000009F
:1062000010B5054C237833B9044B13B10448AFF3F0
:1062100000800123237010BDB0300020000000007A
:10622000F453030008B5034B1BB103490348AFF314
:10623000008008BD00000000B4300020F4530300CB
:10624000A3F5803A704700BF174B002B08BF134BD4
:106250009D46FFF7F5FF00218B460F461348144A71
:10626000121A0DF0DDFD0E4B002B00D098470D4BA0
:10627000002B00D098470020002104000D000D489D
:10628000002802D00C48AFF300800DF087FD2000FD
:10629000290006F03DF90DF06DFD00BF000008007B
:1062A000000000000000000000000120B0300020CD
:1062B000AC47002000000000000000000649074A2B
:1062C000074B9B1A03DD043BC858D050FBDC04F09D
:1062D00091FAFFF7B9FF0000C4550300282F0020F2
:1062E000B0300020FEE7FEE7FEE7FEE7FEE7FEE750
:1062F000FEE7FEE7FEE7FEE7704700BF00B583B0AC
:10630000044B0093044A402300F036F803B05DF8D4
:1063100004FB00BF1D630200D030002002B32DE952
:10632000F843114B114E88461446032743F00109E8
:106330000025224608EB0501002006F065FF034614
:10634000E41A4FF47A401D4423B9337833B1C84777
:10635000013F06D001233370002CEAD1BDE8F88359
:1063600070473770BDE8F88370410300CC300020DF
:10637000704700BF07F01EB8F0B595B0084600247E
:106380000E4617461D4604F085F81A9A0D922346CC
:10639000082205A93046CDE9095408978DF82C400C
:1063A0000C9404F0DBF8DDE906219DF814308DF83B
:1063B0001140CDE9021203F00302012A28D0022A7B
:1063C00004D0304604F06AF815B0F0BDBDF81650A0
:1063D000C3F3C203C5F389158DF810300827082DC3
:1063E0002C4628BF08243B4622460EA9304604F01E
:1063F000B5F82D1B08AB02AA21460EA8274400F0D1
:10640000D1FE002DEBD1304604F048F815B0F0BDB8
:10641000BDF814100598C1F38312C3F3C203C0F38F
:106420009525C1F383148DF810300EA930469200E3
:10643000082304F093F808AB0093224602AB0EA9A0
:10644000284600F039FE304604F028F815B0F0BDBB
:10645000014B01221A70704754310020704700BF71
:1064600000B583B0044B0093044A4023FFF784FF38
:1064700003B05DF804FB00BF81640200143100200A
:1064800038B50F480F4D03780F4CEB5C4FF0000C04
:1064900084F800C0D2B253B1043005F005FD58B9FC
:1064A0000A4B1B7813B12378002BFCD038BD0C307D
:1064B00005F04AFA0028F3D000F0F6FEF0E700BF3E
:1064C000282F002084390020543100201031002072
:1064D00010B51548154A0378D35C88B0C3B10430B1
:1064E00005F042FC124C0FCCEC46ACE80F0094E8EF
:1064F0000F008CE80F0006230B480093002269462A
:1065000004F0CEFC40B90B4B00221A7008B010BD4D
:106510000C3005F0ABF9E5E700F0C6FE054B0022B4
:106520001A7008B010BD00BF282F00208439002049
:10653000844103001031002010B50F4C0FCC88B0FF
:10654000EC46ACE80F0094E80F008CE80F0006233F
:106550000A4A0B480093694604F0A2FC20B9094B93
:1065600001221A7008B010BD00F09EFE054B0122FA
:106570001A7008B010BD00BF8441030051640200CE
:10658000282F00201031002038B50A4DFFF7F2FE09
:106590000421284600F00CFD074B01245C71FFF735
:1065A000CBFF042105F1100000F002FD034B5C71EC
:1065B00038BD00BF9C5503003C2F0020442F002015
:1065C000064B074810B500221A7003F017FF044667
:1065D00010B9044804F098F8204610BD2832002075
:1065E00078540300EC41030030B499B10D490E4DCD
:1065F000491BC90813D00D4C002302E00133994216
:106600000AD034F823208242F8D1184655F83000D9
:1066100030BC7047044DF9E7002030BC7047084695
:10662000F6E700BF9C5503008C540300B0300020F7
:10663000094B013903EBC00003290BD8DFE801F057
:106640000402080604207047022070474079704712
:1066500000797047002070478C540300704700BFDA
:106660002DE9F043904CD4E901239A4285B060D0E3
:106670000023C4F81834BFF34F8FA568EAB2D31CC7
:1066800004EB830114F82330580718D566680B789B
:1066900003F00303012B42D0022B03D14B880235B8
:1066A00005EB9315EAB2D4F81804D31C04EB83016C
:1066B00028B9AE4239D914F823305B07E7D404EB8C
:1066C00082026B1CDBB2D26804EB830302F003018D
:1066D000DB680229CDE9012305F102062DD001294D
:1066E00000F09280D4F810543DB12B6828469B6886
:1066F0009847EB681D68002DF7D16C486C4B6D49CD
:10670000C01AC008000440F0020000F07BFBD4E98E
:106710000130C01A18BF012005B0BDE8F0830B8816
:106720000235C3F383131D44BCE7A66005B0BDE882
:10673000F083002005B0BDE8F083BDF806305E4868
:10674000C3F389184546502D28BF502505F108018F
:1067500065F38F13C1F30901ADF8063003F050FE65
:1067600007460028BED003F095FE0023082201A9A9
:10677000384603F0BFFEF343DBB20133B5EB830FC2
:106780004FEA83027ED9F1B25FFA82F9033104EB5A
:10679000810138460823A5EB090503F0ABFEEDB2F5
:1067A00009F10803454903F0FC032A46384603F083
:1067B000A1FE08F1030806EB9806D4F81834002B64
:1067C0006ED1D4F8105465B1EB685A792846394631
:1067D000002A61D02B681B689847EB681D68002D64
:1067E000F2D1384603F05AFE00230DF103008DF874
:1067F000033001F051F8D4F8183403B9A6609DF8BD
:10680000030001F06FF882E7BDF804202A48C2F3C4
:106810008313062B28BF062363F38912023303F088
:106820000F018900ADF8042003F0EAFD07460028B7
:106830003FF458AF03F02EFE0023082201A938468A
:1068400003F058FEBDF8043013F4707FB5D06FF03C
:1068500001094FF00808A9EB0509F1B203314346DD
:10686000042204EB8101384603F044FEBDF80430F5
:106870000136C3F3831309EB0602934208F10408BF
:10688000EBD89AE7F1B203312A4604EB81010823E1
:10689000384603F02FFE8CE71D68002D94D1A0E749
:1068A000384603F0FBFD32E728320020C4540300D1
:1068B0008C540300D4410300785403003432002088
:1068C0002DE9F04F89B0DFF8B4B1039306460023F9
:1068D0000DF113008DF81330CDE9011200F0DCFF4B
:1068E000DBF80830DBF8047003F58073DB1B042B46
:1068F00078D80BF21C450BF583680BF2144419E0B1
:10690000BDF81630C3F3891303334FEA114A09EB7C
:106910009309204602F004FE514608B1CBF80890D6
:10692000284602F0CDFDDBE9012303F580739B1AB5
:10693000042B58D80121284602F0C2FD404602F03F
:10694000E3FD204602F0E0FDDBF80830DAB2D11CAE
:106950000BEB810C1BF8211001F00400490721D436
:106960000BEB820203F10209D26805920133DBB21C
:106970000BEB830302F00302012AD9682AD0022A12
:10698000BED04FF0000AC4E7BCF802300EEB931300
:10699000DAB2D11C0BEB810C1BF8210000F00400D3
:1069A0000028DDD09CF8001001F0030101290AD075
:1069B000022903F1020E02F10301E5D00BEB810C79
:1069C0000028EFD1CCE7BCF800200233C2F38312D9
:1069D0001344DDE7BDF81430C3F383134FEA114AC3
:1069E000994496E73A46D3B203330532C5219DF860
:1069F00013004BF82310CBF8042000F073FFBB1CEE
:106A0000DBB20BEB8303029ADA60FB1CDBB20BEB0D
:106A10008303039ADA603B1DDBB20BEB8303129A0C
:106A2000DA600021144802F011FD80F31001F20039
:106A3000019B02F0380242F0C102781C42EA832234
:106A4000C0B2FBB2033309040BEB800041EA1641EC
:106A5000C1604BF823209BF8003023B9FFF7FEFDFF
:106A600009B0BDE8F08FFFF7FBFD0028F6D0FFF777
:106A7000F7FD0028F7D1F1E7443600202832002046
:106A80002DE9F04FDFF8BCB189B0002406460DF1C6
:106A900013000393CDE901128DF8134000F0FCFEC2
:106AA000DBF80830DBF8047003F58073DB1B032B85
:106AB00000F281800BF21C450BF583680BF2144445
:106AC0001AE0BDF81630C3F3891303334FEA1149B6
:106AD0000AEB930A204602F023FD494600283AD0EB
:106AE0002846CBF808A002F0EBFCDBE9012303F514
:106AF00080739B1A032B5FD80121284602F0E0FC2B
:106B0000404602F001FD204602F0FEFCDBF80830B2
:106B1000DAB2D11C0BEB810C1BF8211001F0040040
:106B2000490728D40BEB82015A1CC9680591D2B2DF
:106B300001F003000BEB82020128D16803F1020A85
:106B400031D00228BDD0204602F0EAFC4FF0000907
:106B500049460028C4D12846C5E7BCF802300EEBF0
:106B60009313DAB2D11C0BEB810C1BF8210000F05F
:106B700004000028D6D09CF8001001F00301012980
:106B80000AD0022903F1020E02F10301E5D00BEB5A
:106B9000810C0028EFD1C5E7BCF800200233C2F316
:106BA00083121344DDE7BDF81430C3F383134FEAB7
:106BB00011499A448EE73A46D3B203330432852111
:106BC0009DF813004BF82310CBF8042000F08AFE48
:106BD000BB1CDBB20BEB8303029ADA60FB1CDBB25B
:106BE0000BEB8303039ADA600021154802F02EFCB8
:106BF00080F31001F300019A03F0380343F081039E
:106C0000781C43EA8223C0B2FAB209040BEB80007D
:106C1000033241EA1641C1604BF822309BF8003044
:106C200023B9FFF71BFD09B0BDE8F08FFFF718FD92
:106C30000028F6D0FFF714FD0028F7D1F1E700BFD8
:106C400044360020283200202DE9F04FDFF8B0B1A3
:106C500087B0002306460DF10B008DF80B30CDE90F
:106C6000001200F019FEDBE9018303F58073A3EB4A
:106C70000803022B00F281800BF21C450BF58367A1
:106C80000BF214441AE0BDF80E20C2F3891203324D
:106C90004FEA114A09EB9209204602F041FC5146A5
:106CA00000283AD02846CBF8089002F009FCDBE92E
:106CB000012303F580739B1A022B5FD8012128461C
:106CC00002F0FEFB384602F01FFC204602F01CFCDE
:106CD000DBF80830DAB2D11C0BEB810C1BF8211069
:106CE00001F00400490728D40BEB82015A1CC96843
:106CF0000391D2B201F003000BEB82020128D168AC
:106D000003F1020931D00228BDD0204602F008FC70
:106D10004FF0000A51460028C4D12846C5E7BCF808
:106D200002300EEB9313DAB2D11C0BEB810C1BF883
:106D3000211001F004000028D6D09CF8001001F0CA
:106D4000030101290AD0022903F1020E02F1030115
:106D5000E5D00BEB810C0028EFD1C5E7BCF8002093
:106D60000233C2F383121344DDE7BDF80C20C2F3F3
:106D700083124FEA114A91448EE74246D3B203335D
:106D8000033245219DF80B004BF82310CBF804206B
:106D900000F0A8FD08F10203DBB20BEB8303019ABC
:106DA000DA600021154802F051FB80F31001F30076
:106DB000009A03F0380343F0410308F1010043EA6D
:106DC0008223C0B25FFA88F209040BEB8000033221
:106DD00041EA1641C1604BF822309BF8003023B9DC
:106DE000FFF73CFC07B0BDE8F08FFFF739FC002847
:106DF000F6D0FFF735FC0028F7D1F1E74436002044
:106E0000283200202DE9F04FDFF8A0A187B0002341
:106E100006460DF10B008DF80B30019100F03CFDA2
:106E2000DAE9018303F58073A3EB0803012B00F279
:106E300081800AF21C450AF583670AF214441AE0BD
:106E4000BDF80E30C3F3891303334FEA11490BEB3E
:106E5000930B204602F064FB494600283AD02846AE
:106E6000CAF808B002F02CFBDAE9012303F58073BD
:106E70009B1A012B5FD80121284602F021FB3846DE
:106E800002F042FB204602F03FFBDAF80830DAB2AB
:106E9000D11C0AEB810C1AF8211001F004004907FB
:106EA00028D40AEB82015A1CC9680391D2B201F0BE
:106EB00003000AEB82020128D16803F1020B31D0F2
:106EC0000228BDD0204602F02BFB4FF000094946B6
:106ED0000028C4D12846C5E7BCF802300EEB931356
:106EE000DAB2D11C0AEB810C1AF8211001F004006F
:106EF0000028D6D09CF8001001F0030101290AD027
:106F0000022903F1020E02F10301E5D00AEB810C24
:106F10000028EFD1C5E7BCF800200233C2F383128A
:106F20001344DDE7BDF80C30C3F383134FEA114976
:106F30009B448EE74246D3B20333023205219DF8CB
:106F40000B004AF82310CAF8042000F0CBFC002103
:106F5000154802F07BFA80F31001F300019A03F068
:106F6000380343F0010308F1010043EA8223C0B271
:106F70005FFA88F209040AEB8000033241EA164105
:106F8000C1604AF822309AF8003023B9FFF766FB57
:106F900007B0BDE8F08FFFF763FB0028F6D0FFF7DE
:106FA0005FFB0028F7D1F1E74436002028320020AB
:106FB00030B4154DD5F810140446002071B10B46BD
:106FC00001E01B6853B1DB681A798242F9D10130C4
:106FD0000A28F3D14FF0FF3030BC7047E3681871D6
:106FE000D5F810344BB1DA68E36812681A60D5F846
:106FF0001034DB681C6030BC7047C5F81044E26890
:10700000136030BC704700BF2832002038B5084BF1
:10701000D3F8104401251D704CB1E3685D712368FD
:1070200020465B689847E3681C68002CF5D138BDA2
:107030002832002030B5C38885B004460D4623BBF6
:10704000237A052B1FD0627A82B9144AA08852F89D
:10705000232003920021FFF7C7FA039A1049034641
:10706000284605B0BDE8304002F0D4BA1946A088E1
:10707000FFF7DEFA0B4B0C4953F82020284602F0AC
:10708000C9FA237AE1E705B030BD08490091084A02
:107090000849284602F0BEFAD2E700BFC04203000A
:1070A000244203009C4203002042030018420300D4
:1070B000F8410300004203002DE9F04385B01D466E
:1070C0000C9C002394F80C90237380460E461746C0
:1070D00021462846FFF7AEFF062F09D8DFE807F064
:1070E000042E343B444F1F004146204602F092FAE2
:1070F0002B7A052B05D06B7A5BB92749204602F025
:1071000089FA204602F07AFA84F80C9005B0BDE8BE
:10711000F083224A2249204602F07CFAEDE77369A7
:10712000039333690293F3680193B3680093D6E93C
:1071300000234146204602F06DFAD9E73268414605
:10714000204602F067FAD3E7D6E9002341462046FD
:1071500002F060FACCE7B3680093D6E90023414619
:10716000204602F057FAC3E7F3680193B36800932F
:10717000D6E900234146204602F04CFAB8E73369CD
:107180000293F3680193B3680093D6E90023414664
:10719000204602F03FFAABE7344D030018420300EB
:1071A00020420300082900D970472DE9F04F1D4601
:1071B00083B000241B7B2C730E46074629461046DD
:1071C00090460193DFF8D0B0DFF8D0A0FFF732FF90
:1071D00005E03A5D013402F01DFA082C09D0A64200
:1071E00051462846F5D85946013402F013FA082CC6
:1071F000F5D12449DFF8A8B0234CDFF8A8A0284631
:1072000002F008FA4FF0000917E017F80910481CBF
:107210007E294FF02E02C0B206D810F80A2012F0D4
:10722000970F14BF0A462E222146284609F101096C
:1072300002F0F0F9B9F1080F0AD04E45E5D85946E9
:10724000284609F1010902F0E5F9B9F1080FF4D176
:1072500098F80830052B02D098F809305BB90B4933
:10726000284602F0D7F9284602F0C8F9019B2B7393
:1072700003B0BDE8F08F064A0649284602F0CAF975
:10728000EDE700BF3C42030040420300344D0300E1
:10729000184203002042030038420300304203003A
:1072A0002C420300EC52030000B585B003460021D8
:1072B00001AA44F20100CDE90111039300F004F8A2
:1072C00005B05DF804FB00BF10B572B6FFF79EFE77
:1072D000FFF7C6F90028FBD1104B114C1149E41AF5
:1072E000E408240444F00100FFF78CFD0E4BD3F8B2
:1072F000F030DB0700D500BE0C4944F00200FFF778
:1073000081FDBFF34F8F0849094BCA6802F4E06260
:107310001343CB60BFF34F8F00BFFDE78C540300D6
:10732000C4540300E042030000ED00E0EC4203001F
:107330000400FA0530B48D688468C368CA68A54241
:1073400072EB03032CBF0120002030BC704700BF4C
:1073500010B5044682B000230DF107008DF8073008
:1073600000F09AFA23692BB94FF0FF324FF0FF3348
:10737000C4E902239DF8070000F0B4FAD4E905300F
:10738000984700230DF107008DF8073000F084FACC
:107390002369BBB1D4E90212B2F1FF3F08BFB1F1DA
:1073A000FF3F0FD05B1842F10002C4E902329DF8A2
:1073B000070000F097FA0748214603F0C9F90120B9
:1073C00002B010BD9DF8070000F08CFA002002B05A
:1073D00010BD00BF0C4303002DE9F04F2DED028BD3
:1073E00083B008EE100A00F0ABFB40B1AC4AD2E922
:1073F000003113F1807341F10001C2E9003118EE50
:10740000100A002100F0B8FBA64D60B32B6853B3FF
:10741000A54B2C681B7823B31CB3A44800F0BCFB1D
:107420009F4BA34A19685B684018D2E9001243F1E8
:107430000003884273EB020203D210F1807043F123
:107440000003D4E902128842934180F02581B2F111
:10745000FF3F08BFB1F1FF3F03D09648214603F03C
:1074600077F900232B6018EE100A012100F084FB4D
:10747000002840F0F180904801A901F033FF002876
:107480003AD08D4C4FF0FF384FF0FF3909E033B35D
:1074900001A9204601F058FF01A9204601F022FF72
:1074A00050B30378012B11D0022BF0D1814E30461E
:1074B00003F062F930B1C0E90289304603F05CF9AB
:1074C0000028F8D1784B01221A70E1E72B68416857
:1074D000994200F0B580774803F058F9D8E7416841
:1074E000D1E90223B3F1FF3F08BFB2F1FF3FCFD094
:1074F000704803F02DF9CBE76E4FDFF8B081DFF86D
:10750000A091384603F03EF9002852D0D0E902237A
:10751000B3F1FF3F08BFB2F1FF3F00F08D80296853
:1075200091B12968D1E9020182428B4144D22B6892
:10753000D3E90223B3F1FF3F08BFB2F1FF3F03D00D
:107540002968384603F004F9384603F015F9044673
:107550004046574ED4E902BA00F01EFBD9E90013A9
:107560003268401843F100039042726873EB0202E4
:1075700003D210F1807043F10003BBEB00006AEB13
:107580000303012873F1000324DBB0F5350F4DD25E
:107590005A464FF496030021404600F04BFA80B162
:1075A0000D281BD0002338462B6003F0EBF8002891
:1075B000ACD12B68002B66D003B0BDEC028BBDE8CC
:1075C000F08F2B68002B3ED02C6003B0BDEC028BFB
:1075D000BDE8F08F0021404600F0C2FA324B1B7824
:1075E000002BDFD0404600F0D7FAD9F80030D6E9BA
:1075F0000012C018D9F8043043F10003884273EB3D
:10760000020203D210F1807043F10003D4E90212A8
:10761000884293411CD2B2F1FF3F08BFB1F1FF3F56
:10762000C0D02146384603F093F8BBE7404600F04F
:10763000B3FA224A0244ACE7384603F09DF860E70B
:1076400000232B6024E718EE100A00F0C1F9BBE715
:107650002046FFF77DFEA5E71448154E00F09CFA82
:107660000F4B1A685B688018D6E9001243F10003DB
:10767000884273EB020203D210F1807043F10003E1
:10768000C6E90003F7E618EE100A03B0BDEC028B62
:10769000BDE8F04F00F0A0B92046FFF759FEE0E644
:1076A000E836002068370020F03600204C2F0020FC
:1076B000603700200C4303004C370020FFFFB4006C
:1076C00010B5134B13491C68134882B00823582285
:1076D000019401F08BFD044610B1204602B010BDAC
:1076E0000E4A0F4801A900F015F904460028F4D10C
:1076F0000B48012100F01AFA01231946094A0848EB
:1077000000F06EF9084B012220461A7002B010BD3D
:1077100008430300F43600204C370020D9730200E0
:107720004C2F0020FFFF7F00F036002000000000FB
:107730006AB19FED097BA1F101010368B1FA81F102
:10774000490983ED027BC3E904120020704707203A
:10775000704700BFAFF30080FFFFFFFFFFFFFFFF99
:10776000F0B583B00446002501A817460E468DF8F3
:10777000045000F091F8D4E90223B3F1FF3F08BFB1
:10778000B2F1FF3F06D09DF8040000F0ABF82846A8
:1077900003B0F0BD1C4800F0FFF91C4B1C4A1968EF
:1077A0005B684018D2E9001243F10003884273EB92
:1077B000020224D3301843F10003A060E3609DF877
:1077C000040000F08FF82369A76103B12661114816
:1077D00001A901F045FD034670B100250D481D705B
:1077E0005C6001A901F06EFD0028D1D0064800F0D0
:1077F000D7F9284603B0F0BD042003B0F0BD10F166
:10780000807043F10003D5E74C2F0020E8360020BC
:10781000603700204C37002030B583B00446002587
:1078200001A88DF8045000F037F8D4E90223B3F131
:10783000FF3F08BFB2F1FF3F1CD04FF0FF334FF0C6
:10784000FF32C4E902239DF8040000F04BF8104811
:1078500001A901F005FD034648B10122027001A90A
:107860000B485C6001F02EFD58B903B030BD042018
:1078700003B030BD9DF8040000F034F8284603B092
:1078800030BD044800F08CF9284603B030BD00BF7D
:107890004C3700204C2F002070B4EFF3108472B6E8
:1078A0000D4B9A68AAB9012199600C490C4ED1F888
:1078B000805035401D60C1F88060D1F884505D6013
:1078C0004FF0FF33C1F88430027004B962B670BC67
:1078D000704701230370F8E76C37002000E100E0F7
:1078E000FC06FFBD094B9A687AB170B910B4EFF38A
:1078F000108172B6064A1C6814605C685460986017
:1079000001B962B65DF8044B704770476C370020D0
:1079100000E100E010B5274C437904EBC3031B7969
:10792000002B3BD103680A88C3F8082590F904307E
:107930008A78002B2ADB03F16043520103F561438F
:10794000D2B283F8002390F90430002B09DB1A49E6
:107950004FEA531C012203F01F0302FA03F341F81C
:107960002C304279154B44F832001548181A04EBB4
:10797000C201C0084FF0010C000481F804C040F0BF
:1079800003001049FFF73EFA002010BD0E4903F036
:107990000F0352011944D2B20A76D4E7084B0748C4
:1079A0000A49C01AC008000440F00200FFF72AFA92
:1079B000082010BD7837002000E100E0D454030017
:1079C0008C5403003C430300FCEC00E0184303002C
:1079D000036801221A607047036801225A607047E9
:1079E00070B405684FF480348C40C5F808430568CE
:1079F00001F1500CC5F848434FEA8C0C05681FFA9A
:107A00008CFC002645F80C6083B055F80C500195AD
:107A1000019D056801F5A87122F07F4245F82120FB
:107A20000268C2F8444313B10368C3F8044303B0C7
:107A300070BC70472DE9F0474FF4803622F07F4745
:107A400002688E40C2F848630268C2F808630268A0
:107A500002EB810C044601F15005D2F80405DCF874
:107A60004025CCF84005AD00ADB2121A20684FF0A9
:107A7000000840F8058082B04059009022F07F4213
:107A8000012A00988A46994641D02268D2F80455C6
:107A9000C2F844637A1B22F07F42012A0AF5A871DA
:107AA00025D0236843F821702068D0F804557B1B4B
:107AB000C9F1FF12013B02F57F4223F07F439A4256
:107AC00011D343B1C0F8446323680020C3F80463B2
:107AD00002B0BDE8F087013740F821702068D0F887
:107AE00004359D42EED00D2002B0BDE8F08723683A
:107AF000013743F821700C4B4FF4806043F00103D1
:107B000098472068D0F804359D42DBD0EBE7064A61
:107B10004FF4806042F001029047226842F80580ED
:107B200052590192019AB0E75043030002680223C0
:107B3000C2F8443311B10268C2F80433704700BF81
:107B40000368D3F8040100B97047002282B0C3F87B
:107B50000421D3F804310193019B012002B0704746
:107B600002684FF4803303FA01F1C2F84813036846
:107B7000C3F80813704700BF50318900036889B209
:107B8000585800B9704700225A5082B05B58019390
:107B9000019B012002B070470368D3F804057047C9
:107BA00090F90430002B09DB5A09054803F01F0344
:107BB0000121403201FA03F340F82230704700BF40
:107BC00000E100E00223F0B50B8000F5805E083094
:107BD00082B32A4D4FF6FF740126036801331FD08C
:107BE000478807F1030C00EB8C0CE6451CD3838817
:107BF000A34216D00388A3B18368B3F1FF3F10D02E
:107C0000D5F800C09C4501D22B6047880B88033310
:107C10003B440B804388033300EB83008645DCD86C
:107C2000F0BD16704788F1E7012313704FF48063AD
:107C30000B80F0BD114D4FF6FF7403680133EFD098
:107C40004388DA1C00EB82029645EFD38288A24279
:107C500009D002883AB18268561C04D02E68B2421C
:107C600084BF2A6043880A88033213440B80438808
:107C7000033300EB83008645DFD8F0BDB837002022
:107C80002DE9F041436888461BB1334AD468A342CA
:107C90003CD2324E0023A8F800307268012702F56A
:107CA000805C4FF6FF75083294450DD8022FA8F876
:107CB000007006F114064CD0726802F5805C083240
:107CC00094454FF00207F1D913680133EED0538881
:107CD000033302EB83039C45E8D3B2F804E0AE45DE
:107CE00009D014883CB19468611C04D00168A14299
:107CF00005D01A46D8E79C45D8D91A46E4E7184B70
:107D000042601B8903810120BDE8F0811269934222
:107D1000BFD813F00305BCD1114A048912899442DB
:107D2000B7D104689A689442B3D10C484268934230
:107D300003D902F58052934207D38269934208D94E
:107D400002F58052934204D20125A8F80050012088
:107D5000DAE70020D8E700BF9C300020C0370020C1
:107D6000A43700202DE9F04F9B4F8BB004464FF60F
:107D7000FF783E68002E00F0BA803278531E052B43
:107D800000F26E82DFE803F058212103033E002C4D
:107D900040F0B4803379012B00F0B682022B00F062
:107DA000C580002B00F08E8205AD0594C5E9024424
:107DB0002C6148F20E6406943378023B042B49D8B8
:107DC000DFE803F0897569624500B6F814A0002C5D
:107DD00040F05682814D0AEB8A0305EB83034FEA9C
:107DE0008A091C895B6803EB8404B37D062B00F2CF
:107DF0002C84DFE813F079016601990188014501BF
:107E00002E010901002C79D1DFF8F0C19CF80C306B
:107E1000002B00F0AA809CF800308CF80C40013B4D
:107E2000062B00F21D82DFE813F01903D502C20110
:107E3000AE011B0205039A01002C40F01A8233792F
:107E4000032B00F28780DFE803F0BA63789F0523F5
:107E50008DF81430624C04F1100654F8043B2846A7
:107E600003B19847A642F8D15E495F4800243C60C0
:107E700001F06AFA5D48012101F02EFB00287FF431
:107E800078AF0BB0BDE8F08F04238DF81430F38881
:107E9000ADF82030DEE703238DF81430F388ADF819
:107EA00020303389ADF82230F3680793D2E70223FC
:107EB0008DF814303389ADF82030B388ADF8223016
:107EC000F3680793B37DA3F10603B3FA83F35B0969
:107ED0008DF82430BEE701238DF814303389ADF8D6
:107EE0002030B388ADF82230F3680793B2E73D49FC
:107EF0003D4801F0F7F9064638603EE74FF4064486
:107F000005AD0023C5E90033C5E902332B6152E713
:107F1000324D2B78022B00F07C832B7D022B00F05E
:107F20008883334B01221A7000225A6005AD002469
:107F30000594C5E902442C613DE72E4A2E480221F2
:107F40000023337191801168012201F0AFFF0028F6
:107F500097D03E68264A05AD002305935360C5E9D6
:107F600002332B6148F20D6425E79CF80030072BA3
:107F700000F2A282DFE813F0B602A002A002D10252
:107F8000ED02F300F3009A021A4C1C4B21681A48C8
:107F90000022327100925D8805EB85030F4D05F8D4
:107FA000232005EB8305A3882B816B6823600223C4
:107FB000A380134A6960082301F0E6FEC7E70123A6
:107FC0000C493371002309680E4A00930A480823BC
:107FD00001F0DAFEBBE700BFBC370020C03700204D
:107FE0008C370020B43700207438002084380020FB
:107FF0009C370020883800209C300020A4370020C7
:108000005C43030064430300324641F61D5409EB10
:108010000A0105EB8101F3880889033303440B81CE
:10802000D144F38805EB89051646C3F57F436A8979
:10803000FD3313446B8105AD41F61D52002394427C
:10804000059308BF1C46C5E902332B613FF4B3AE6C
:10805000C0E2A54BA54A5968A54BA6481C88062333
:10806000B37500230093042301F08EFE10BB04EBD4
:10807000840305EB830501232B740BB0BDE8F08F5F
:108080009948B3699A4903604FF0000BC0F804B0F7
:10809000FFF7F6FD002800F0AF820223B37504233A
:1080A0009448CDF800B02146F21801F06DFE00288A
:1080B0003FF4E7AEB37D3A68022B48F20D64AFD9C6
:1080C000A5E7032A0CBF05230623B37500230093FD
:1080D0008848211D042306F1080201F055FE0028FE
:1080E000E8D10BB0BDE8F08F0223B37500230093F5
:1080F000042380482146F21801F046FE0028D9D119
:108100000BB0BDE8F08FF38832690120B075002014
:10811000009004F10C0177489B0001F035FE002827
:10812000C8D10BB0BDE8F08F33697248002B14BF83
:1081300003230123B3750023009304F108010423F2
:1081400006F10C0201F020FE00283FF49AAEB37D48
:108150003A68022B48F20D647FF662AF57E7664A31
:1081600064481168002307228CF800200093634ABA
:10817000CCF80430082301F007FE0446002C3FF43D
:1081800080AE3E6857E7BCF802305D4D03EB8303D9
:1081900005EB8305EB68002B54D169685548042230
:1081A0008CF80020012201F081FE0446E6E7DCF8AD
:1081B00004205148538884880168033301EB84010B
:1081C000002003249BB200909B008CF8004049489B
:1081D00001F0DAFD0446D1E701200346ACF8023095
:1081E00000EB800305EB8303DCF8042059684FEAB9
:1081F000800E01F58056002A00F01D82538803335B
:1082000002EB8302964217D91368013314D05388C6
:10821000033302EB83039E420ED39488444505D07A
:1082200014881CB19468013440F001819E4203D946
:108230001A4613680133EAD1704405EB8005EB68F8
:10824000002BABD02C4A2B480523022191808CF8BF
:10825000003011680023012201F028FE04468DE75A
:1082600005AD0023059348F20E64C5E902332B6186
:10827000A1E5244B00225A604FF4064405AD40E6C8
:10828000B37D1F4D022B08D90AEB8A0205EB82024F
:10829000F388118903330B4413814FEA8A09D144CF
:1082A000F38805EB8905C3F57F436A89FD331344E1
:1082B0006B8105AD002305934FF40644C5E90233F5
:1082C0002B6178E502233371CDE9064405ADF368EF
:1082D00005930DF112012846FFF7D2FC002840F06B
:1082E0004D8148F209640CE68037002058430300B2
:1082F000943800209C30002088380020644303001C
:10830000C03700209C370020B44B1B78002B00F0B6
:108310005581DFF8D0E2BEF80490B9F1010F11D811
:10832000AF4D039409EB890205EB8202137883B108
:1083300009F101091FFA89F3012BAEF8049002F14B
:108340001402F3D9A748082200210BF069FD3E680A
:10835000ECE55368DEF8001003F5805C03F1080AD1
:10836000002900F029814B88033301EB83018C4500
:1083700006D8039BCEF80030DAE79C45F9D91946B8
:108380000B680133F5D04B88033301EB83039C4525
:10839000EFD38C884445F0D0B1F800B0BBF1000FAA
:1083A000EBD088680130E8D0F388CEF80010A34203
:1083B000D6D1002300938C4A8C48042301F0E4FCBE
:1083C000002840F03B8109EB890905EB8905012371
:1083D0002B7456E5BCF80200814DDCF8042000EB5C
:1083E000800305EB83034FEA800E596801F5805640
:1083F000002A40F0A98001F10802B242BFF41CAF8C
:10840000136801333FF418AF5388033302EB83033F
:10841000B3423FF611AF9488444500F0C8801488F9
:10842000002C00F0C4809468013400F0C080CCF8C7
:108430000420BEE6BCF80220694D9300134405EB0E
:108440008305062400236968694A009367488CF80D
:108450000040082301F098FC04468FE69CF80A309F
:108460004BB15F4DE86800238CF80A3018B92B7CBB
:10847000002B40F0E8809CF80B3053B1584D00239E
:108480008CF80B302B6A23B995F82430002B7FF43D
:10849000A3AE05AD002305938CF80030C5E9023387
:1084A000ACF80230CCF804302B6184E401238CF862
:1084B00000309CF80A30D3E7013B062B3FF6D0AEE4
:1084C00001A252F823F000BF5D840200D5830200B0
:1084D000AF810200878102006182020035840200C0
:1084E0005F8102003E4DBCF808302A7D0133ACF8B4
:1084F0000830B2FA82F22B785209B3FA83F38CF87F
:108500000B2000225B09ACF802208CF80C20012221
:108510008CF80A308CF80020A2E7BCF80200304D3D
:10852000344CDCF8042000EB800305EB8303568811
:108530005968A38803333344A38002238CF80030A6
:1085400000FA03FE01F580565388033302EB8302E1
:1085500053E7BCF80220224D264902EB820305EBCB
:1085600083038888188158680C6808600220888016
:1085700000215C60197402FA00F35FE706991A4A59
:108580008B88F3800B883381184800940423BDF84E
:10859000124001F0F9FB002837D1114B04EB8404A1
:1085A00003EB8404012323740BB0BDE8F08FB342C6
:1085B000BFF442AE1A4623E75146D8E605AD214640
:1085C000084808220BF02CFC0594C5E902442C61F4
:1085D00048F201643E68FFF7EEBB00BF9C37002005
:1085E000C037002098380020584303009C300020FA
:1085F0005C4303008838002005AD059048F209640B
:10860000C5E902002861FFF7D6BB3E6848F20D6459
:1086100077E4002303EB830305EB83020D485168E5
:10862000002205F82320009208230B4A01F0ACFB3E
:108630008DE40123EEE701F10802E3E53E6848F22C
:108640000D6405AD5DE40346C8E5324648F20E64AC
:10865000DDE400BF9C3000205C4303004068FFF76E
:1086600081BB00BF094A116804290BD038B5084CFA
:10867000156803460121104644F8253000F020FF1C
:10868000002038BD48F20B60704700BF90380020D2
:108690008C3700202DE9F04F974D89B02A780023C0
:1086A000CDE90333CDE90533079372B1934C04F15F
:1086B000100554F8043B03A803B19847A542F8D12C
:1086C0000024204609B0BDE8F08F281D02F0FF0805
:1086D00000F00EFF0028F3D1D8F8F83F5C1C42D020
:1086E0004FF0805211695269DFF838928449C9F815
:1086F00010300022A3F540534846C9F80C3001F071
:108700000BFB04460028DCD17E497F48DFF818A225
:108710001C238C2200F06AFD26464FF0030B2746EF
:10872000D9F80C30F018F35800F0DD80774A934206
:1087300025D14368764A934273D00132934220D1C7
:10874000B8F1000F40F09680724B73491860002218
:108750000193FFF737FA019B9B88022B0CBF042380
:1087600008231C4326E04FF010234FF080525B6932
:1087700011695269581C08BF02FB01F3B4E70133C9
:108780000AD1031D00F5805101E099425FD01A68BB
:10879000013203F10403F8D007EB87030AEB8302ED
:1087A0000BF1FF3B5060032201370AF823201FFA28
:1087B0008BFBBFB206F58056B6F5405FB0D1BBF17A
:1087C000010F40F28A80E4B2062C0ED14B4C0122FC
:1087D00000232A706B6004F1100554F8043B03A8D1
:1087E00003B19847A542F8D16AE702D814F0FD0F0B
:1087F00073D002A9444800F033FD1C220546002135
:108800000BF00EFB002D62D00123013C2B700A2CD3
:1088100048D8DFE804F04547454759475947565F70
:10882000560007EB87030AEB83029900506001F1C1
:10883000100208314FF0000C5244514401370AF83D
:1088400023C044F00204FFF7BDF9BFB2B2E7314BD9
:108850001A68FAB1314A07EB87010AEB81035780A6
:10886000022201370AF821205860BFB21A8144F071
:1088700001049FE707EB870C0AEB8C020221254BD2
:108880000AF82C10118125494F8019685160013771
:10889000BFB25AE7022218609A804FF00108E6E75B
:1088A00000232B7102A9184800F00CFD1C4801217F
:1088B00000F0FAFD044600287FF402AFFFF752FAF9
:1088C000FFE603232B71EDE701232B71EAE748F262
:1088D0000764F6E602232B71E4E700232B7048F2CD
:1088E0000A646B60EDE65A1C3FF44BAF074A9342B3
:1088F0003FF447AF50E700BF9C3700208C37002083
:1089000078450300E837002074380020DEC0ADDE73
:10891000FE011EF1883800208C380020A43700208A
:10892000843800209C300020C037002030B370B560
:108930000D4682B0F1B10DF106010446FFF7A0F932
:1089400018B948F2096002B070BDBDF806000D4BC1
:10895000666800EB800003EB800001210C3000F022
:10896000AFFD2E60636801220C3300206B60A272A1
:1089700002B070BD48F2046002B070BD48F20460FD
:10898000704700BFC037002010B310B582B00DF1A2
:1089900006010446FFF774F9B0B1BDF806300E4A7F
:1089A00003EB830302EB8303DA684AB1A27A3AB19C
:1089B000DA680021013A0846DA60A17202B010BDFF
:1089C00048F2056002B010BD48F2096002B010BD67
:1089D00048F20460704700BFC03700202DE9F0471F
:1089E000514B1B7882B083B30C46002945D00A88CE
:1089F0004FF6FF739A4222D04B8803B34D6815F0AF
:108A0000030534D1B1F8089009F103039BB240F299
:108A1000FE32934234D8454A1178074639B9508915
:108A200011890144194489B2B1F5806F2BD9117DA8
:108A300089B148F20665284602B0BDE8F08748F2E1
:108A40000365284602B0BDE8F08748F20165284674
:108A500002B0BDE8F087D08B918B0144194489B2F4
:108A6000B1F5806FE5D84FF00108C2460DE048F23D
:108A70000265284602B0BDE8F08748F20465DAE7EF
:108A800048F20865D7E7A846AA460AEB8A0A02EB2D
:108A90008A0A034401A92648AAF80A3000F0E0FB3C
:108AA0001C22064600210BF0BBF9002E2FD0A6F8A1
:108AB000148002234FF0000886F816803370636834
:108AC000336101211B4800F0FBFCF06023883381F7
:108AD00063881748B38001A9A6F80690A6F80A8013
:108AE00000F0F0FB47B1C7F80480F268124B3A601F
:108AF0001B8987F80A803B811048012100F0D4FCD3
:108B00000446002897D1FFF72DF9254693E7BAF8D8
:108B10000A30C9F57F4909F1FD099944AAF80A907C
:108B200048F2076587E700BF9C370020C037002068
:108B300074380020B8370020A43700208438002083
:108B40002DE9F04782B068B3524B1B78002B41D01F
:108B50000C4639B30A884FF6FF739A4234D04B88DB
:108B600093B34E6816F003063AD1B1F808A00AF1A3
:108B700003039BB240F2FE32934234D8464A117846
:108B8000054639B9518910890844184480B2B0F5B6
:108B9000806F2BD9117D59B148F20666304602B07C
:108BA000BDE8F08748F20466304602B0BDE8F087C1
:108BB000D18B908B0844184480B2B0F5806FEBD80D
:108BC0004FF00109C84613E048F20366304602B090
:108BD000BDE8F08748F20166304602B0BDE8F08794
:108BE00048F20266DAE748F20866D7E7B146B046CF
:108BF00008EB880802EB88080B442848A8F80A30DC
:108C000001A900F02DFB1C22074600210BF008F9FA
:108C1000002F32D04FF000080323A7F8149087F8F4
:108C200016803B7063683B6101211D4800F048FCE1
:108C3000F86023883B816388BB800423A7F806A0E3
:108C4000BB752B68BB6101A91448A7F80A8000F026
:108C500039FBC5F80480FA68124B2A601B89124858
:108C600085F80A802B81012100F01EFC04460028B3
:108C700094D1FFF777F8264690E7B8F80A30CAF59E
:108C80007F4A0AF1FD0A9A44A8F80AA048F207664A
:108C900084E700BF9C370020C037002074380020D4
:108CA000B8370020A43700208438002070B51D4B51
:108CB0001B7882B00BB34FF6FF739842044626D060
:108CC00001A9194800F0CCFA1C22054600210BF03E
:108CD000A7F8BDB1052301262B70EC8001A912482D
:108CE0002E7100F0EFFA1148314600F0DDFB04462A
:108CF00090B10024204602B070BD48F201642046C5
:108D000002B070BD48F20764204602B070BD48F260
:108D10000364204602B070BDFFF724F8204602B07D
:108D200070BD00BF9C3700207438002084380020BC
:108D300010B5194B1B7882B0F3B101A9174800F0A8
:108D40008FFA1C22044600210BF06AF8F4B10623C6
:108D50002370124801A900F0B5FA114B1A780AB134
:108D600001221A730F48012100F09EFB044640B116
:108D70000024204602B010BD48F20164204602B033
:108D800010BDFEF7EFFF204602B010BD48F20764A9
:108D9000204602B010BD00BF9C3700207438002070
:108DA000A4370020843800202DE9F047374C247880
:108DB000002C5FD0002A61D0002B5FD09C88012C52
:108DC00060D8334D661C04EB840405EB84058A46A9
:108DD0002C78B6B24FF6FF774FF0000844B1022E60
:108DE0009E8005F114054DD02C780226002CF6D17A
:108DF0001C68D5F804C00CF5805E002C37D0B4F8A0
:108E000002C00CF1030C04EB8C04744505D3C3F8C9
:108E10000080E4E7E645FAD9644621680131F6D0DE
:108E2000B4F802C00CF1030C04EB8C0CE645EED355
:108E3000B4F80490B945EDD0B4F80090B9F1000F42
:108E4000E8D0A1680131E5D01C60B4F804C08445C5
:108E5000CFD1B4F800C0D445CBD1A1681160196856
:108E60000C4B51601B8913810020BDE8F0870CF189
:108E70000804CAE748F20160BDE8F08748F20460E0
:108E8000BDE8F08748F20960EFE700BF9C3700209B
:108E9000C0370020A4370020364B1B78002B60D051
:108EA000002961D0002A5FD02DE9F043B2F804E038
:108EB000BEF1010F5BD8304B0EF101050EEB8E0EAB
:108EC00003EB8E0EADB29EF800304FF6FF764FF0FA
:108ED00000094BB1022D95800EF1140E47D09EF87B
:108EE00000300225002BF5D11368DEF804C00CF524
:108EF0008054002B32D0B3F802C00CF1030C03EB0A
:108F00008C03A34205D3C2F80090E3E76445FAD985
:108F100063461F680137F6D0B3F802C00CF1030CAA
:108F200003EB8C0C6445EED3B3F80480B045EDD070
:108F3000B3F80080B8F1000FE8D09F680137E5D0A2
:108F400013601C888442D0D19B680B6012680B4B65
:108F50004A601B890B810020BDE8F0830CF10803F7
:108F6000CFE748F20160704748F20460704748F26A
:108F70000960F1E79C370020C0370020A4370020AB
:108F8000364B1B78002B60D0002961D0002A5FD0BF
:108F90002DE9F043B2F804E0BEF1010F5BD8304B8D
:108FA0000EF101050EEB8E0E03EB8E0EADB29EF8A8
:108FB00000304FF6FF764FF000094BB1022D95803F
:108FC0000EF1140E47D09EF800300225002BF5D18B
:108FD0001368DEF804C00CF58054002B32D0B3F8CF
:108FE00002C00CF1030C03EB8C03A34205D3C2F8BF
:108FF0000090E3E76445FAD963461F680137F6D06D
:10900000B3F802C00CF1030C03EB8C0C6445EED3F7
:10901000B3F80480B045EDD0B3F80080B8F1000F8C
:10902000E8D09F680137E5D013609C888442D0D196
:109030009B680B6012680B4B4A601B890B810020F8
:10904000BDE8F0830CF10803CFE748F201607047F8
:1090500048F20460704748F20960F1E79C3700204D
:10906000C0370020A437002020B119B103680B607D
:109070000020704748F20460704700BF2DE9F84FA8
:10908000574B1B78002B00F0A3800446002800F00B
:10909000A380122200210AF0C3FEDFF84C81608811
:1090A0002189B4F80AC0A7894E4A032323800025EA
:1090B0004FF6FF7E5389B2F80890994453681FFA1F
:1090C00089F9002B56D01E68464553D15B6803F1E1
:1090D0006E6303F5FF330233012B4BD8414ECC4472
:1090E000C9F5806305EB850906EB89099BB2D9F8C0
:1090F0000C90484480B26080B2F80A904944BB4268
:109100001FFA8CFC89B288BFA3812181A4F80AC010
:10911000D2F8049088BF1F4609F1080309F5805969
:109120001E68013621D0B3F802A00AF1030A03EB4E
:109130008A0AD14538D3B3F804A0F2451ED0B3F85B
:1091400000A0BAF1000F19D09E68013616D0B4F80D
:1091500004A00AF1010AA4F804A0B3F802A00AF1DD
:10916000030A03EB8A039945DAD8143275B3002059
:10917000BDE8F88F2388013B2380AFE7B4F806B041
:10918000B4F80EA00BF1010BA4F806B0B3F802B0CE
:109190000AF1030ADA44A4F80EA0B3F802A00AF117
:1091A000030A03EB8A03DEE7A9EB03094FF001038F
:1091B000B4F806A02374E3890AF1010A03EBA903BA
:1091C000A4F806A0E3811432002DD0D1012571E767
:1091D00048F20160BDE8F88F48F20460BDE8F88FFE
:1091E0009C370020C0370020DEC0ADDE99B110B43E
:1091F000B2FBF3F403FB1424A4B244B9C0E9001495
:1092000084608281C38120465DF8044B7047092049
:109210005DF8044B70470E20704700BF82B050E8E5
:10922000022FC188B2EB324F4FF0000317BF92B24A
:1092300041EA014142EA014104E04268B2EB324FA7
:1092400008BF012340E80212002AE8D18DF8073058
:109250009DF80730002B0CBF1120002002B0704792
:1092600010B483B050E8013F1FFA83FCC489A444C2
:109270008489A44528BFACEB040C0489A44502BF33
:10928000BFF32F8F002207E0CCEA030C40E801C4B3
:10929000002CE7D14FF001028DF803200193019CCF
:1092A0009DF803200C6032B1006810FA84F003B01E
:1092B0005DF8044B704702F0FF03184603B05DF8F9
:1092C000044B70470A884B889A4201D000207047AF
:1092D00050E8012FC2EA024240E80123002BF7D1F7
:1092E0000120704710B483B050E8023F1FFAA3FC7E
:1092F000C488A44502BFBFF32F8F00220EE0C489AB
:10930000A4448489A44528BFACEB040CC3EA0C4CEC
:1093100040E802C4002CE7D14FF001028DF8032091
:109320000193019C9DF803200C6032B1006800EBB2
:10933000144003B05DF8044B704702F0FF03184679
:1093400003B05DF8044B70470A884B889A4201D0FD
:109350000020704750E8022FC2EA224240E8022370
:10936000002BF7D1012070474B0901F01F024FF08D
:10937000010C0CFA02F100EB830000F07DB800BF95
:109380004B0910B501F01F040121A14000EB83003F
:1093900000F066F8E04000F0010010BD01F01F028F
:1093A000012303FA02F24B0900EB8300D14300F0E2
:1093B0006FB800BF4B0901F01F0150F82300C840EF
:1093C00000F00100704700BF2DE9F04F01F1FF3BB5
:1093D00083B04FEA5B130F460546019300264FF01A
:1093E000010A55F8264005EB8608E44394FAA4F4F4
:1093F000FCB1B4FA84F404EB46144FEA4619A742D0
:1094000017D904F01F0360090AFA03F105EB800085
:109410009B4600F025F820FA0BF0C30711D5D8F8C9
:109420000030DB4393FAA3F3B3FA83F44C44002BEC
:10943000E5D1019AB24206F1010301D01E46D0E700
:109440003C46204603B0BDE8F08F00BF034653E81A
:10945000000F0A4643E8002C9CF0000FF7D170473C
:10946000034653E8000F40EA010243E8002C9CF059
:10947000000FF6D1704700BF034653E8002F42EAC1
:10948000010043E8000C9CF0000FF6D1704700BFCC
:10949000034653E8002F02EA010043E8000C9CF069
:1094A000000FF6D1704700BF034653E8000F00EBF2
:1094B000010243E8002C9CF0000FF6D1704700BF7A
:1094C000034653E8002F02EB010043E8000C9CF038
:1094D000000FF6D1704700BF034653E8002FA2EB00
:1094E000010043E8000C9CF0000FF6D1704700BF6C
:1094F0000346012253E8000F40EA020143E8001C42
:109500009CF0000FF6D170470346012253E8001F7C
:1095100041EA020043E8000C9CF0000FF6D17047CE
:109520000346002253E8000F00EA020143E8001C52
:109530009CF0000FF6D17047D0B110B4D0E9011201
:10954000521A0468D2B2531E2160DBB252B10168D4
:109550000A6803F1FF3C541C0C6013705FFA8CF333
:10956000FF2BF4D10368002018715DF8044B70479D
:109570000E20704730B583B0044600250DF107007A
:109580008DF80750FEF788F9D4E900311A688A424D
:1095900010D9511E19602168A3680D6812F8012CBA
:1095A000208A5B1BE56800FB02550A79DBB29A4210
:1095B00038BF0B719DF80700FEF794F9284603B0F9
:1095C00030BD00BF30B5054683B00DF10700002364
:1095D0000C468DF80730FEF75FF92A681368591CAE
:1095E0001160E9682A8A641AB4FBF2F41C709DF8D1
:1095F0000700FEF777F903B030BD00BF826842B1C3
:1096000010B5044643690168006998470023A360C8
:1096100010BD70470EB400B582B0039921B104AB00
:1096200001AA019300F0B6F802B05DF804EB03B0B4
:10963000704700BF2DE9F04F154683B0A942DDF811
:1096400030900D9A0F4606469A46C0F09E800B4613
:109650004FF00108B3FBF5F39D4208F10108F9D979
:10966000D04538BFD04612F00103019302D1B9F1C1
:10967000000F67D1B268BAF1010F4FF0010406D9AB
:109680000AF1FF3ABAF1010F05FB04F4F8D8B7FB71
:10969000F4F39D4205D805FB04F4B7FBF4F39D42B7
:1096A000F9D9DFF8ECA007E0AC42B4FBF5F31AD32C
:1096B000B2681C46B7FBF3F31AF803B0BBF10A0F0C
:1096C00004FB137728D03368511CB16003F802B053
:1096D000D6E901329A42E7D33046FFF78FFFB4FB59
:1096E000F5F3AC42E4D2019B9BB1B9F1000F10D06D
:1096F0002024C84509F1FF390BD2B3683268591CE0
:10970000B160D454D6E901329A4214D2B9F1000FB3
:10971000EFD103B0BDE8F08F511C3368B1604FF05A
:109720000D019954D6E901329A42CCD33046FFF765
:1097300065FFB268C7E73046FFF760FFB9F1000F79
:10974000D7D1E6E793071AD42024B268C84502F1BE
:10975000010190D23368B1609C54D6E901329A423B
:1097600009F1FF3903D2B9F1000FEFD183E7304699
:10977000FFF744FFB268B9F1000FE7D17BE7BAF118
:10978000000F0CBF30242024DFE74FF0010867E70B
:109790006C430300002900F05C822DE9F04FDFF8F4
:1097A00070950D7885B0064690460C464FF00D0A30
:1097B0000FE00A2DB36800F08E803268591CB1604A
:1097C000D554D6E901329A4280F081802578002D67
:1097D00069D00134002D66D0252DEAD1002723461B
:1097E00014F8012B2D2A6CD0302A6DD02B2A61D091
:1097F0002A2A7FD0A2F1300109294FF000050BD8A9
:1098000005EB850502EB450513F8012FA2F13001A8
:109810000929A5F13005F3D92E2A1C4675D000235D
:1098200001E014F8012F02F0FB016829F9D0252A84
:1098300000F08681583AD1B2202930D8202A2ED87B
:10984000DFE812F021002D002D002D002D002D004D
:109850002D002D002D002D002D00FE0079002D0083
:109860002D002D002D0079002D002D002D002D0044
:109870002D002D00BD002D002D001A012D00160118
:109880002D002D002100D8F800101022081DC8F866
:10989000000009683046CDE90057FFF7CBFE0134E0
:1098A0002578002D95D1337B002B40F0438105B006
:1098B000BDE8F08F234614F8012B2D2A47F004074A
:1098C00092D147F001078AE747F0020787E7304661
:1098D000FFF794FE7AE73268591CB16002F803A0E2
:1098E000D6E901239342FFF468AF3046FFF786FEC6
:1098F000B36862E7D8F80020111DC8F80010156899
:109900005A782E2A03F1010489D16278A2F130033A
:10991000092B04F101044FF0000384D803EB830307
:1099200002EB430314F8012FA2F130010929A3F13E
:109930003003F3D977E7D8F80020111DC8F80010DC
:10994000D2F800B08BEAEB72A2EBEB72092A40F37B
:10995000DB81DFF8C0C3012011466329ACFB02E2C2
:1099600000F101004FEAD202F6DC9842024638BF0D
:109970001A460292002D00F01E81BBF1000FC0F2CA
:109980002E817A0700F12B81B80740F12A81002B44
:1099900040F02781BBF1000FC0F27D817A0700F112
:1099A0008D8107F00302022A00F05D81CDE90057A6
:1099B00059460A223046FFF73DFE013470E7D8F8D9
:1099C00000301A1DC8F800201F68B3683268581CA0
:1099D0003021B060D154D6E90123934280F0FA805F
:1099E000591C3268B1607821D154D6E901329A42CB
:1099F00080F0EB800F2F03D93B461B090F2BFCD8BF
:109A00004FF0805506E00F2D4FEA15137FF647AF54
:109A1000B2681D46B7FBF5F319F803B0BBF10A0FA6
:109A200005FB137777D03368511CB16003F802B09F
:109A3000D6E901329A42E6D33046FFF7DFFDE2E78E
:109A4000D8F800301A1DC8F800201D78B3680A2D18
:109A500000F03A813268591CB160D554D6E9013220
:109A60009A42FFF41CAF3046FFF7C8FD013417E7F8
:109A7000D8F800100A2209E7D8F800301A1DC8F8F3
:109A8000002017F00107D3F800B064D1BBF1000F3C
:109A900003D058460AF0D4F90746BD4215D9202212
:109AA00001E0BD4211D0B1683368481CB0605A541F
:109AB000D6E90130984205F1FF35F2D33046FFF781
:109AC0009DFDBD424FF02002EDD19BF80050002DCE
:109AD0003FF4E5AE0A2DB0680FD03368421CB26087
:109AE0001D54D6E90130984280F0B4801BF8015F24
:109AF000002D3FF4D4AE0A2DEFD13368421CB26082
:109B000003F800A0D6E901309842E6D33046FFF7CB
:109B100075FDB068E1E73368511CB16003F802A03D
:109B2000D6E901329A42FFF47EAF3046FFF766FD78
:109B3000B26878E7304605B0BDE8F04FFFF75EBD8C
:109B4000B3683168581CB060CA54D6E901329A42F1
:109B500089D20134A4E69BF80030002B00F0D680B7
:109B6000B0685F46CBF101020A2B02EB070B5ED017
:109B7000411CB16031680B54D6E90130984248D29B
:109B800017F8013F002BEFD15D457FF688AE202707
:109B900002E05D453FF483AEB2683368511CB160AA
:109BA0009F54D6E901329A4205F1FF35F1D3304690
:109BB000FFF724FDEDE7B80705D5002B3FF4EAAE2B
:109BC000F9073FF5E7AE0025E4E63046FFF716FD5E
:109BD000B2680FE73046FFF711FDB36800E7013DBB
:109BE000D2E6F9073FF5D6AE002DECD0202202993F
:109BF000A942BFF4CFAEB168481CB060306842548F
:109C0000D6E90101814205F1FF356CD2002DEED17C
:109C1000D9E730460292FFF7F1FC17F8013F002B1D
:109C2000B2D0029AB0680A2B02EB070BA0D1411CFC
:109C3000B160316801F800A0D6E90110884297D3DD
:109C40003046CDE90232FFF7D9FCDDE90232B068D7
:109C50008EE770473046FFF7D1FC1BF8015F002DFF
:109C60007FF438AF1BE6002B7FF4A0AE8DB130221D
:109C700002998D427FF69AAEB168481CB060306898
:109C80004254D6E90101814205F1FF3535D2002D5C
:109C9000EED100258AE6B1683268481CB060CBF18D
:109CA000000B2D205054D6E901219142FFF479AEEA
:109CB00030460393FFF7A2FC039B72E6B16832685B
:109CC000481CB0602B20EDE73268591CB16002F8E7
:109CD00003A0D6E901239342FFF4BCAE3046FFF760
:109CE0008DFCB368B6E630460393FFF787FC039B11
:109CF0002022002D7FF47BAF65E730460393FFF70A
:109D00007DFC039B3022C2E701202EE69B463BE709
:109D10006C430300CDCCCCCC10B582B038B1B9B116
:109D200001600B68114602B0BDE810401847104BA7
:109D30001048114A1149C01AC0080E240004104BE3
:109D4000009440F00100FCF7BBFD0E2002B010BDF6
:109D5000074B08480B4A0949C01AC0080E240004E2
:109D6000074B009440F00100FCF7AAFDEDE700BFAF
:109D70008C540300245503007C43030084430300F8
:109D800058450300B04303002DE9F04182B000289C
:109D900059D01546002A5FD00768002F65D01C46B1
:109DA0006BB34668D6F80480B3FBF8F608FB1636AA
:109DB00076BB11F0030F34D1AD073BD1C568A94282
:109DC00011D22E4B2E482F4AC01A1024C0082E4BF9
:109DD000A0402E49009440F00100FCF771FD2046A0
:109DE00002B0BDE8F081056901F1FF3E7444AC4268
:109DF000E7D8FC68A44602B0BDE8F04160471F4BBD
:109E00001F48234AC01AC0081F4B09240004E0E77A
:109E10001A4B1B481F4AC01AC0081B4B09240004D8
:109E2000D7E7164B16481C4AC01A1024C008164B18
:109E3000A040CEE7114B1248184AC01A1024C0089F
:109E4000114BA040C5E70D4B0D48154AC01AC0087C
:109E50000D4B0E240004BCE7084B0948114AC01AF8
:109E6000C008094B0E240004B3E7044B04480E4A13
:109E7000C01AC008044B08240004AAE78C5403004D
:109E80002455030080440300444503008443030039
:109E9000CC43030018440300444403005C44030023
:109EA0007C43030010440300B8430300F0B583B0C3
:109EB00000283AD00668002E40D022B344682768B4
:109EC0007C1E0C4228D1C468A14210D2204B2148EC
:109ED000214AC01A1024C008204BA04020490094F9
:109EE00040F00100FCF7ECFC204603B0F0BD4C1E36
:109EF00007FB024E0469A645E8D83469A44603B0BE
:109F0000BDE8F0406047124B1248164AC01AC0081C
:109F1000124B09240004E1E70D4B0E48124AC01A07
:109F20001024C0080D4BA040D8E7094B09480F4A40
:109F3000C01AC008094B0E240004CFE7044B0548A3
:109F40000B4AC01AC008054B08240004C6E700BF2E
:109F50008C54030024550300D04403003045030013
:109F600084430300CC430300A84403007C43030064
:109F7000B843030029DF704728DF70470846704761
:109F800000207047024B187A003818BF0120704734
:109F90003C390020034B187A0122B0FA80F05A7441
:109FA000400970473C39002008B510461A4609F0B0
:109FB00029FF002008BD00BF08B514220021044875
:109FC00009F02EFF0348FFF729F9002008BD00BF64
:109FD0003C3900202C39002010B50A4C0A4B436054
:109FE0002046FFF785FA08B1002010BD08F048FBB5
:109FF00002462274054906481C238C22FFF7F6F816
:10A00000002010BD3C3900206C450300A038002022
:10A010002C39002030B53B4D2B7A87B0002B3AD03D
:10A02000394B1C6802232B722379002B3ED0012B65
:10A0300025D022689368C3B10023CDE90233009391
:10A04000049303230193A36805932379002B4BD03A
:10A05000012B07D102238DF80030E3686169049178
:10A060001B030293936868469847284928480023B1
:10A070002B726B6007B0BDE83040FFF765B9D4E9DB
:10A0800003031844FFF778FF20B31128D1D101232F
:10A090002B7207B030BD1D491D48FFF723F91A4B3D
:10A0A000044618600028BDD16860F2E7D4E90523B2
:10A0B000D21AB2F5805F28BF4FF480529208E1684F
:10A0C0002069012A38BF012219441844FFF752FFC2
:10A0D0000028DAD12B7C002BDBD10146022007B00F
:10A0E000BDE8304000F016B801238DF80030236938
:10A0F0000293E1686369CDE9031368469368984762
:10A10000B3E700BF3C39002054390020503900200B
:10A110002C390020831E012B42D810B5354C237AF0
:10A1200086B0002B3AD0022B31D103283ED0324BDF
:10A1300000221B68E2601A79002A44D0012A26D145
:10A14000D3E9042101328A421A6120D10020207211
:10A1500019688A68BAB10022CDE9022200920492FD
:10A160009A68019005921A79002A39D0012A07D1FC
:10A1700002228DF80020DA685869049012030292D6
:10A180008B68684698471D491D48FFF7DDF8637CDA
:10A190003BB906B0BDE81040FFF73CBF06B010BDAC
:10A1A000704706B0BDE8104008F05ABAE3680133C2
:10A1B000082B01D8E360EAE70F4B00221B68E2603E
:10A1C00022720D20C4E7D3E90512881AB0F5805F2A
:10A1D00094BF121802F5805291429A61D7D1B5E727
:10A1E00001228DF800201A690292DA685B69CDE9D4
:10A1F0000323C5E73C3900205439002050390020A2
:10A200002C3900202DE9F04184B0074688461848D3
:10A2100003A916461D46FFF723F820B304461C2267
:10A22000002109F0FDFD0A9B27606561114F104870
:10A23000A360002503A9C4F81080E6602571FFF72C
:10A2400041F8381DFFF754F918B1284604B0BDE8AD
:10A25000F0817B7C002BF9D10190FFF7DBFE0198A8
:10A2600004B0BDE8F081042004B0BDE8F08100BF77
:10A270002C3900203C3900202DE9F04184B0804683
:10A280000D46174803A916461F46FEF7E9FF18B307
:10A2900004461C22002109F0C3FD2D0BA7600123F9
:10A2A000104F0F48C4F8008003A9E5606661237170
:10A2B000FFF708F8381DFFF71BF918B1002004B0AC
:10A2C000BDE8F0817B7C002BF9D10190FFF7A2FE65
:10A2D000019804B0BDE8F081042004B0BDE8F0812D
:10A2E0002C3900203C39002000F0FD03012B00D068
:10A2F000704730B53D4DA0F10100B0FA80F02B7AE7
:10A300000022400987B06A742874002B4ED0384B65
:10A310001C6802232B722379002B52D0012B07D10A
:10A32000D4E903031844FFF727FE58B311281CD0C3
:10A33000226893687BB10023CDE902330093049334
:10A3400003230193A368059323792BB3012B10D02A
:10A350009368684698472749274800232B726B600B
:10A3600007B0BDE83040FEF7EFBF01232B7207B006
:10A3700030BD02238DF80030E368616904911B034E
:10A380000293E5E72B7C002BF1D10146022007B0B8
:10A39000BDE83040FFF7BEBE01238DF800302369D1
:10A3A000E16802936369CDE90313D1E711491248CB
:10A3B000FEF798FF0E4B044618600028A9D168608C
:10A3C000D5E7D4E90523D21AB2F5805F28BF4FF450
:10A3D00080529208E1682069012A38BF012219449D
:10A3E0001844FFF7C7FD0028A0D1CBE73C39002077
:10A3F00054390020503900202C390020FFF79CB838
:10A400002DE9F041058A0331043D4E198046B6FB23
:10A41000F5F6FFF7AFF8A0B3F6B24FF48073013E44
:10A4200004468380C580C0F800802BD003460025F9
:10A4300008E06279AE4202F1010262713860C0F850
:10A4400000801FD040461F46FFF794F801350346B1
:10A450000028EED16779791E17D022460133994240
:10A460001268FBD1D2F800805FB12668002501E0B8
:10A4700034463668214640460135FFF7A3F8AF421F
:10A48000F6D800242046BDE8F08120682146FFF779
:10A4900099F8F6E701210430FFF712B82DE9F041F1
:10A4A000012104460430FFF717F810F0FF0301D034
:10A4B000BDE8F0816779791E16D0224601339942B2
:10A4C0001268FBD1D2F80080002FF1D02668002559
:10A4D00001E034463668214640460135FFF772F800
:10A4E000AF42F6D8BDE8F08120682146BDE8F041D2
:10A4F000FFF768B82DE9F8438846C788417907FB1C
:10A5000001F1043902EB030C1E1D6145154638BFED
:10A51000CD1AB7420446B6FBF7F207FB126002D829
:10A52000013A2468FCD13E1AAE4228BF2E469DB1A6
:10A530004FF000090430AD1B324608EB09012044FE
:10A5400009F060FCAF42B14424683E464FF0000081
:10A5500028BF2E46002DEDD1BDE8F8832DE9F84344
:10A560000446C788407907FB00F0043802EB030C6F
:10A570001E1D6045154638BFC51AB7428846B6FB52
:10A58000F7F107FB116202D801392468FCD1BE1A29
:10A59000AE4228BF2E469DB14FF00009111DAD1BE4
:10A5A0003246214408EB090009F02CFCAF42B144CB
:10A5B00024683E464FF0000228BF2E46002DEDD104
:10A5C000BDE8F88333DF704741DF7047064A074B29
:10A5D00010B5002414701C60BFF35F8F0449054858
:10A5E00000F0A0F8204610BD613900206439002039
:10A5F000A44503005839002000B583B000230DF1B5
:10A6000007008DF80730FDF747F9F1EE103A23F017
:10A610009F03E1EE103ABFF35F8F0B4B4022C3F86C
:10A6200084219DF80700FDF75DF908F029F828B9A5
:10A6300020BF40BF20BF03B05DF804FB03B05DF84E
:10A6400004EBFFF7C1BF00BF00E100E070B5284E8A
:10A65000044601213046FEF7F9FEBFF35F8FD0B903
:10A66000042C40D0234B1A7862BB234D01222C705E
:10A670001A70224C636823B90EE000F05DF863683D
:10A6800053B11B682878984703462046002BF4D125
:10A69000BFF35F8F336070BDFCF7B8FCFBF7E0FFE2
:10A6A0000028FBD12B78023B012B0FD907F0E8FFE4
:10A6B000D8B94FF080430122C3F80025BFF34F8F74
:10A6C00020BFFDE7BFF35F8F306070BDBFF34F8FDA
:10A6D0000B490C4BCA6802F4E0621343CB60BFF332
:10A6E0004F8F00BFFDE7044DC3E7FFF76BFFE0E7C7
:10A6F0006439002061390020603900205839002079
:10A7000000ED00E00400FA0582680023936082688F
:10A710001361826853618268D36082685360826883
:10A720001360704701600B6843604A68934204BF3E
:10A7300000234360704700BF436843B102689168DB
:10A740000B4443605268934204BF00234360704748
:10A7500070B54468064620680D4618B908E02468BC
:10A76000206828B1B368294698470028F7D12068A7
:10A770002860256070BD00BF4368186808B1026892
:10A780001A60704743681868704700BF43681868CC
:10A7900018B908E00346006828B18142FAD10A6876
:10A7A0001A600120704770471049A1F5947205E0C6
:10A7B00052F83330984238BF61460CD2A1EB020CFC
:10A7C0004FEADC7303EBEC035B10914202EBC30C2A
:10A7D000EED80748704702D90CF10802EEE7DCF822
:10A7E0000400034B002808BF18467047E44A0300E2
:10A7F000A849030010B44FF08053D3F830315A1CED
:10A8000004BF4FF0704393F8E03F062B08D14FF0A0
:10A810008053C24AD3F82433C3F30423C2F840352B
:10A820004FF0704393F8E02F062A00F024814FF098
:10A830008053D3F830315C1C04BF4FF0704393F861
:10A84000E03F062B09D14FF080534FF08042D3F800
:10A850004432C3F34233C2F83C354FF0704393F8AF
:10A86000E02F062A00F0F2804FF08053D3F8303109
:10A87000581C04BF4FF0704393F8E03F062B08D1FB
:10A880004FF080430022C3F80C21C3F81021C3F815
:10A8900038254FF0704393F8E02F062A00F0B3807C
:10A8A0004FF08052D2F83031591C27D0062BD2F805
:10A8B00034212DD09A4AD2F8883043F47003C2F87C
:10A8C0008830BFF34F8FBFF36F8F4FF08053D3F8B3
:10A8D0003021062A00F0E0804FF01023D3F8002248
:10A8E000002AC0F23B81D3F80432002BC0F236813B
:10A8F0008C4B8D4A1A605DF8044B70474FF07042E4
:10A9000092F8E01FD2F8E82F0629D3D1C2F3031240
:10A91000033A042A40F2DA804FF08053834AD3F896
:10A920000414C2F82015D3F80814C2F82415D3F87B
:10A930000C14C2F82815D3F81014C2F82C15D3F84B
:10A940001414C2F83015D3F81814C2F83415D3F81B
:10A950001C14C2F84015D3F82014C2F84415D3F8DB
:10A960002414C2F84815D3F82814C2F84C15D3F8AB
:10A970002C14C2F85015D3F83014C2F85415D3F87B
:10A980003414C2F86015D3F83814C2F86415D3F83B
:10A990003C14C2F86815D3F84014C2F86C15D3F80B
:10A9A0004414D3F83031C2F870155C1C04BF4FF06A
:10A9B000704393F8E03F062B7FF47CAF4FF080525A
:10A9C0004FF08041D2F85832D2F8302103F04F03D3
:10A9D000501CC1F8E43E7FD0062A7FF46BAFD1F85B
:10A9E0000034DA0700F184804FF08053D3F834311B
:10A9F000033B042B64D94E4AD2F83C3743F48063BE
:10AA0000C2F83C3756E7D3F8E83FC3F30313033BE0
:10AA1000042B3FF645AF474AD25C22B14FF080424B
:10AA20000321C2F8A015444AD35C002B3FF438AF91
:10AA3000424B0524012000213F22C3F81046C3F8F1
:10AA40008806C3F81816C3F8142629E7D3F8E83F98
:10AA5000C3F30313033B042B3FF606AF384AD35C22
:10AA6000002B3FF401AF2E4AD2F8FC3023F0807364
:10AA7000C2F8FC30F8E6D3F8E83FC3F30313033B16
:10AA8000042B3FF6D4AE2F4AD35C002B3FF4CFAE5D
:10AA90002D4B2E4A5A67CAE6D3F83431033B042BB8
:10AAA00008D94FF010224FF08043D2F80822C3F8A3
:10AAB000582511E7264AD35C002B3FF40DAFF0E791
:10AAC000244AD35C002B3FF4F5AE94E722498A5C1C
:10AAD000002A3FF46AAF1FE74FF0704393F8E03F5E
:10AAE000062B7FF4E7AED1F80034DB077FF5E2AE4A
:10AAF0004FF080534FF08042D3F830316FF00101B6
:10AB0000062BC2F800147FF4D5AE4FF08053D3F873
:10AB10003431033B042B3FF66EAFD1E700300140E8
:10AB200000ED00E0542F00200090D00300C0004052
:10AB300000100040FC4A0300FC4A030000500040A3
:10AB4000FC4A0300FC4A030000C007400DF0ADBA08
:10AB5000F44A0300EC4A0300E44A0300184A0123C4
:10AB6000C2F80435D2F80034002BFBD04FF010238C
:10AB70001521134AC3F80012D2F80034002BFBD081
:10AB80004FF0102315210E4AC3F80412D2F80034F6
:10AB9000002BFBD000230A49C2F80435D1F8003459
:10ABA000002BFBD0BFF34F8F0649074BCA6802F456
:10ABB000E0621343CB60BFF34F8F00BFFDE700BFE0
:10ABC00000E0014000ED00E00400FA054FF0A04273
:10ABD000044B1B5CD2F80405D840C04300F00100D0
:10ABE000704700BF044B0300044A115C01234FF07F
:10ABF000A0428B40C2F80C35704700BF044B0300E5
:10AC0000044A115C01234FF0A0428B40C2F8083582
:10AC1000704700BF044B03004FF0A04310B44FF443
:10AC200080204FF400344FF400214FF48012C3F819
:10AC30000845C3F80805C3F80815C3F808255DF8EA
:10AC4000044B70474FF0A04310B44FF480204FF4F2
:10AC500000344FF400214FF48012C3F80C45C3F8C0
:10AC60000C05C3F80C15C3F80C255DF8044B7047B0
:10AC7000074B4FF0A041185CD1F804350122824007
:10AC800022EA03001340C1F80805C1F80C357047EB
:10AC9000044B030010B568B90E4CA3680122627022
:10ACA0003BB1D3E900230020A2609847A368002BA2
:10ACB000F7D110BD0128FCD1064C2369A070002BF0
:10ACC000F7D0D3E900230120226198472369002BA4
:10ACD000F7D110BD6839002070B910B5074CA368D2
:10ACE000012262703BB1D3E900230020A2609847A3
:10ACF000A368002BF7D110BD704700BF6839002052
:10AD000030B5012883B004D0032821D0B0B103B0FE
:10AD100030BD294C00230DF107008DF80730FCF7FA
:10AD2000BBFD23786BB3E3689DF807000122134451
:10AD3000E360A270FCF7D6FD03B030BD1F4B0122CB
:10AD4000C3F88020BFF34F8FBFF36F8F03B030BDC8
:10AD5000194C00F0EBF800230DF107008DF80730D7
:10AD6000FCF79AFDE368013BE360E3681BB9144B11
:10AD7000D3F80054C5B19DF80700FCF7B3FD03B04C
:10AD800030BD10486360A3602361E36000F0C2F847
:10AD900007F076FC60B10A4A01232370D2F8002440
:10ADA000002AC0D0A370BEE700F002F9A570E2E768
:10ADB00000F0BCF8EFE700BF6839002000E100E0D8
:10ADC0000000014095AC020030B51A4DAB7883B05D
:10ADD00004469BB110B143680120984700230DF150
:10ADE00007008DF80730FCF757FDEB689DF807006A
:10ADF0000133EB60FCF776FD03B030BD03F0FF02DA
:10AE00000DF107008DF80720FCF746FD64B12A69B3
:10AE100042B1944208D0134601E09C4204D01B6822
:10AE2000002BFAD122602C61EB68002BDDD100F001
:10AE30008FF8DAE76839002030B50A4B0A4C53F82E
:10AE4000213054F82110027885B0D0E901548DF8F2
:10AE50000020C26801958DF8084003926846984723
:10AE600005B030BD803900207C39002030B50A4B58
:10AE70000A4C53F8213054F82110027885B0D0E9FB
:10AE800001548DF80020C26801958DF808400392A6
:10AE90006846984705B030BD803900207C390020D5
:10AEA000F0B5174B06784F7F43F826201446154B14
:10AEB000154A9F550546086942F826008C46BCE8AD
:10AEC0000F0089B0EE46AEE80F009CE80F008EE858
:10AED0000F0004964FB1002C0C4A694608BF224669
:10AEE000281D00F059FE09B0F0BD002C084A694643
:10AEF00008BF224605F10C0000F0EAFB09B0F0BDE6
:10AF000080390020843900207C39002039AE0200CD
:10AF10006DAE0200044A137923B9012110609180BB
:10AF2000184670478520704788390020074B1A68FB
:10AF3000D20704D4C02283F8002301221A604FF004
:10AF400080430122C3F81825704700BF00E100E0EC
:10AF500010B44FF080430022C3F8042183B0D3F82B
:10AF600004210192104901980222C3F80423D1F868
:10AF7000FC000E4A40F08073C1F8FC30146844F0C5
:10AF800001031360516853685B1AB3F50A5FFAD383
:10AF9000054914604FF080430122C1F8FC009A601B
:10AFA00003B05DF8044B704700ED00E0001000E0D6
:10AFB0004FF0804202210023C2F8081382B0C2F889
:10AFC0000431D2F80431019301230199D360D2F8FE
:10AFD0001834DB03FBD402B0704700BF10B54FF04C
:10AFE000804382B0D3F8002162B10021164AC3F831
:10AFF0000011D3F80011507900910121009CC3F891
:10B000000813A8B14FF08043D3F80421CAB100223D
:10B01000C3F80421D3F80421019202210A4A0198BD
:10B02000C3F808131368012002B0BDE810401847A8
:10B030001368517198474FF08043D3F80421002AD8
:10B04000E5D102B010BD00BF88390020F0B585B051
:10B050001D4A00230193D2F80011012900F0E58177
:10B060001E46194BD3F80421012A00F0CF81164B5C
:10B07000D3F80821012A00F0B881134BD3F80C2132
:10B08000012A00F0A381104BD3F81021012A00F00F
:10B090008E810D4BD3F81421012A00F079810A4BDF
:10B0A000D3F81821012A00F06481074BD3F81C2142
:10B0B000012A0BD0044BD3F87C21012A00F0C28175
:10B0C00026BB05B0F0BD00BF00600040D3F80423EC
:10B0D0001206EFD50022C3F81C21D3F81C110291EF
:10B0E000D3F87C110298012946F080060ED1C3F8EE
:10B0F0007C21D3F87C2103924FF0A043039AD3F82C
:10B1000020250192C3F8202546F00046BE4F0024BA
:10B110000125A30003F180432E4203F5C0434FEA0B
:10B1200045050BD0D3F8100557F82420D3F8101597
:10B13000C0F30420C1F3014102B190470134082C4F
:10B14000E7D1002EBDDAB04C01254FF0A04694F9AE
:10B150005000471C3DD0C0F3C20310336B44C1B252
:10B1600013F80C2C00F0070305FA03F31A4200F061
:10B170003F002ED0830003F1A04305FA00F7D3F877
:10B180000027D3F800C72CF4403CC3F800C7C2F333
:10B190000142D3F800C7022A0CBF4FF4403E4FF4DF
:10B1A000003E4CEA0E0CC3F800C72318C6F8207501
:10B1B00093F9303054F823305BB18909032900F04A
:10B1C0006581022A00F05F81032A02D1022900F082
:10B1D0005D8194F95100411C3DD0C0F3C20310338E
:10B1E0006B44C1B213F80C2C00F0070305FA03F30B
:10B1F0001A4200F03F002ED0830003F1A04305FA6D
:10B2000000F7D3F80027D3F800C72CF4403CC3F86C
:10B2100000C7C2F30142D3F800E7022A0CBF4FF483
:10B22000403C4FF4003C4CEA0E0CC3F800C7231816
:10B23000C6F8207593F9303054F823305BB1890992
:10B24000032900F01981022A00F01381032A02D198
:10B25000022900F0118194F95200421C3DD0C0F344
:10B26000C20310336B44C1B213F80C2C00F0070377
:10B2700005FA03F31A4200F03F002ED0830003F1D9
:10B28000A04305FA00F7D3F80027D3F800C72CF441
:10B29000403CC3F800C7C2F30142D3F800E7022ADA
:10B2A0000CBF4FF4403C4FF4003C4CEA0E0CC3F88A
:10B2B00000C72318C6F8207593F9303054F82330AE
:10B2C0005BB18909032900F0D280022A00F0CC800A
:10B2D000032A02D1022900F0CA8094F95300431CCA
:10B2E0003DD0C0F3C20310336B44C1B213F80C2C31
:10B2F00000F0070305FA03F31A4200F03F002ED0D6
:10B30000830003F1A04305FA00F7D3F80027D3F830
:10B3100000C72CF4403CC3F800C7C2F30142D3F885
:10B3200000E7022A0CBF4FF4403C4FF4003C4CEACB
:10B330000E0CC3F800C72318C6F8207593F93030F7
:10B3400054F823305BB18909032900F09A80022A5E
:10B3500000F09480032A02D1022900F09280D6F8EE
:10B3600020350193C6F82035002B7FF4F0AE05B0F0
:10B37000F0BDD3F8042351067FF597AE0022C3F841
:10B380001821D3F818310293029B46F040068CE650
:10B39000D3F8042390067FF582AE0022C3F814216F
:10B3A000D3F814310293029B46F0200677E6D3F8D7
:10B3B0000423D4067FF56DAE0022C3F81021D3F824
:10B3C00010310293029B46F0100662E6D3F8042384
:10B3D00015077FF558AE0022C3F80C21D3F80C31C5
:10B3E0000293029B46F008064DE6D3F80423570764
:10B3F0007FF543AE0022C3F80821D3F80831029349
:10B40000029B46F0040638E690390020D3F8042366
:10B4100092077FF52CAE0022C3F80421D3F8043143
:10B420000293029B46F0020621E6D2F8046316F06E
:10B4300001063FF416AEC2F80031D2F80031029393
:10B44000029B0EE60022C3F87C21D3F87C210392F4
:10B450004FF0A043039AD3F820250192C3F820258A
:10B46000002E3FF470AE4FE601297FF436AF9847C7
:10B4700033E701297FF4EFAE9847ECE601297FF42A
:10B480006EAF98476BE701297FF4A3AE9847A0E61B
:10B49000014B1B68184700BFEC390020104B984245
:10B4A0001BD130B583B000230DF107008DF80730B4
:10B4B0000D46FCF7F1F90B4B9DF807001C793CB9E0
:10B4C00001221D601A71FCF70DFA204603B030BD51
:10B4D000FCF708FA112003B030BD0020704700BF10
:10B4E00000200040EC390020034B984203D1034B6D
:10B4F00000221A601A71704700200040EC390020C9
:10B5000010B5714AD2F8043399058AB068D5D2F8DB
:10B510002431002B64D00023C2F82431D2F8243126
:10B5200001934FF40171694B0198C2F8081393F825
:10B53000291009B901215160634902228DF81820B0
:10B54000D1F88024C1F880249FED5D7B9969D8688B
:10B55000CDE9081283ED067BD3E90012079006A817
:10B560009047594AD2F81C31C3B1584B5869196AEF
:10B5700088426AD993F8281001F0FF00002964D1AD
:10B58000C2F81C01D2F81C11039103999C68186A37
:10B59000196A205C01311962C2F81C054A4AD2F8C6
:10B5A0004431DBB10021494BC2F84411D2F84401C7
:10B5B00093F829100090009809B1012111609A694F
:10B5C00062B1D8685C6A00210122CDE90704996163
:10B5D0008DF8182006A8D3E9001290470AB010BDD4
:10B5E000394AD2F804335B07BBD5D2F80831002BB7
:10B5F000B7D0364B996900293ED00021C2F8081116
:10B60000D2F8081104910499D868596AD2F818251B
:10B6100042545A6A996901325A625A6A8A42A0D1DE
:10B62000DA69002A31D09A611A69D8685C6ADA60EE
:10B63000002101220894D961596207905C68196859
:10B640008DF8182006A8A0478BE71F4A0020C2F8F3
:10B650001C01D2F81C210292029A5A69002A9DD03C
:10B66000D3E901215C698DF81800CDE90714586110
:10B67000196806A8904791E7C2F80811D2F80801A6
:10B6800005900598D2F81825C7E793F8292012B934
:10B690000D4A012151600C4A4FF40171C2F80813A0
:10B6A000D8685C6A0021012299618DF81820D3E9DD
:10B6B0000012CDE9070406A8904752E7AFF30080D7
:10B6C000000000000000000000200040F8390020C9
:10B6D0002DE9F041604E90F804802C2303FB0863B1
:10B6E00082B093F82A30002B40F0898005460C4642
:10B6F00000685A491746FFF7D1FE00287BD123681E
:10B70000591C0CD04FF0A041012202FA03F3C1F8FA
:10B710000835236803F5E073032241F823206368AA
:10B720005A1C06D003F5E0734FF0A042002142F806
:10B7300023102B68A269C3F82425227D637D13435F
:10B740002A68C2F86C35D4E900122B68C3F81425B6
:10B75000C3F80C15237D012B5CD02C2303FB08F3CD
:10B76000F21857602269F25097B32A68237F0021AC
:10B77000C2F81C11D2F81C210092009A2A68C2F863
:10B780004411D2F844210192019A2A683449C2F83E
:10B7900004132A6842F3073100294FEA123232DBE0
:10B7A00001F160415B0101F56141DBB281F80033D9
:10B7B0002B6843F30732002A4FEA133109DB294C87
:10B7C0005209012301F01F0103FA01F144F822108C
:10B7D0002B680422C3F800252C2303FB08660122F2
:10B7E0000023C6E9063386F82930736186F82A20DB
:10B7F00002B0BDE8F081112002B0BDE8F081082060
:10B8000002B0BDE8F081184902F00F025B01DBB223
:10B810008B54CDE7A368591C06D003F5E0734FF0B5
:10B82000A042002142F82310E3685A1C0DD04FF0CB
:10B83000A041012202FA03F3C1F80835E36803F5D9
:10B84000E073032241F82320E3682A68A168C2F864
:10B850000835C2F8101580E7F839002001B502005C
:10B860008000020000E100E014ED00E0F8B503689C
:10B870000679324C0022C3F800252C2303FB064333
:10B880005B68C3B103682E4AC3F80823036843F317
:10B890000732002A4FEA13310EDB5209294D2032BC
:10B8A000012301F01F0103FA01F145F82210BFF353
:10B8B0004F8FBFF36F8F0368D3F80CC5D3F814759F
:10B8C000D3F80815D3F810554FF0FF32C3F81425FC
:10B8D000C3F80C2503689445C3F80825C3F8102560
:10B8E00006D00CF5E07C4FF0A043022243F82C2058
:10B8F0007B1C06D007F5E0774FF0A043022243F807
:10B9000027206A1C06D005F5E0754FF0A0430222FF
:10B9100043F825204B1C06D04FF0A04301F5E07101
:10B92000022243F821200068FFF7DEFD2C2303FBF1
:10B930000644002384F82A306360F8BDF8390020FB
:10B940008402020000E100E02DE9F041334C90F860
:10B9500004E02C2303FB0E438446586984B000287E
:10B960004ED15A619960186283F82800DCF80020F3
:10B97000C2F81C01D2F81C210292029ADCF80020C5
:10B9800001219160DCF800209D68C2F81C01D2F80A
:10B990001C1101910199196A6E5C196A01311962D1
:10B9A000C2F81C655A6812B104B0BDE8F0815E6946
:10B9B0001A6ADCF8001096421BD9074602E093F899
:10B9C00028200ABBD1F81C21002AF8D0C1F81C712C
:10B9D000D1F81C210392039A1A6A15F802801A6A98
:10B9E00001321A62C1F81C851A6A9642EAD8DCF85C
:10B9F0000010D1F81C31002BFBD00123CB6004E0F8
:10BA0000112004B0BDE8F0810F202C2303FB0E446D
:10BA10000023636104B0BDE8F08100BFF839002065
:10BA200010B55B4BD3F824218AB0002A58D00022ED
:10BA3000C3F82421D3F82411049102228DF8182090
:10BA40000499544AD3F88014C3F880149FED4E7BB8
:10BA50000991D3F83C45D06882ED067BCDE9070417
:10BA6000D2E9001306A89847494BD3F8442152B1B4
:10BA70000021484AC3F84411D3F844019169039066
:10BA80000398002961D1424BD3F8202162B10020F4
:10BA9000C3F82001D3F82021029201213D4A029CE3
:10BAA000D9605169002943D1394BD3F85821AAB143
:10BAB0000020C3F85801D3F85811364A0191019972
:10BAC000516959B1D3F84C458DF81800D2E90131CC
:10BAD0005061CDE9071406A8116898470AB010BD57
